:10000000F8FF002011040000E3C00000E3C000007E
:10001000E3C00000E3C00000E3C00000E3C0000054
:10002000E3C00000E3C00000E3C00000E3C0000044
:10003000E3C00000E3C00000E3C00000E3C0000034
:10004000E3C00000E3C00000E3C00000E3C0000024
:10040000FFFFFFFFFFFFFFFFFFFFFFFFFEFFFFFFFD
:1004100062B616F093FEFEE7FFFFFFFFFFFFFFFF50
:10042000FFFFFFFFFFFFFFFFFFFFFFFFFFFFFFFFDC
:10043000FFFFFFFFFFFFFFFFFFFFFFFFFFFFFFFFCC
:10044000FFFFFFFFFFFFFFFFFFFFFFFFFFFFFFFFBC
:10045000FFFFFFFFFFFFFFFFFFFFFFFDF3E9DFD51A
:10046000CBC1B7ADA3998F857B71675D53493F358C
:100470002B21170D03000000000000000000000009
:10048000000000000000000000000000000000006C
:10049000000000000000000000000000000000005C
:1004A000000000000000000000000000000000004C
:1004B0000000000000000000FFFFFFFFFFFFFFFF44
:1004C000FFFFFFFFFFFFFFFFFFFFFFFFFFFFFFFF3C
:1004D000FFFFFFFFFFFFFFFFFFFFFFFFFFFFFFFF2C
:1004E000FFFFFFFFFFFFFFFFFFFFFFFFFFFFFFFF1C
:1004F000FFFFFFFFFFFFFFFFFFFFFFFFFFFFFFF318
:10050000E6D8CBBDAFA29486796B5D5042352719F2
:100510000C000000000000000000000000000000CF
:1005200000000000000000000000000000000000CB
:1005300000000000000000000000000000000000BB
:1005400000000000000000000000000000000000AB
:100550000000000000000000FFFFFFFFFFFFFFFFA3
:10056000FFFFFFFFFFFFFFFFFFFFFFFFFFFFFFFF9B
:10057000FFFFFFFFFFFFFFFFFFFFFFFFFFFFFFFF8B
:10058000FFFFFFFFFFFFFFFFFFFFFFFFFFFFFFFF7B
:10059000FFFFFFFFFFFFFFFFFFFFFFFFFFFFFFFF6B
:1005A000FFFFF5E0CBB5A08A755F4A351F0A000052
:1005B000000000000000000000000000000000003B
:1005C000000000000000000000000000000000002B
:1005D000000000000000000000000000000000001B
:1005E000000000000000000000000000000000000B
:1005F0000000000000000000FFFFFFFFFFFFFFFF03
:10060000FFFFFFFFFFFFFFFFFFFFFFFFFFFFFFFFFA
:10061000FFFFFFFFFFFFFFFFFFFFFFFFFFFFFFFFEA
:10062000FFFFFFFFFFFFFFFFFFFFFFFFFFFFFFFFDA
:10063000FFFFFFFFFFFFFFFFFFFFFFFFFFFFFFFFCA
:10064000FFFFFFFFFFFDCB996735030000000000AF
:10065000000000000000000000000000000000009A
:10066000000000000000000000000000000000008A
:10067000000000000000000000000000000000007A
:10068000000000000000000000000000000000006A
:10069000000000000000000000000000000000005A
:1006A000000000000000000000000000000000004A
:1006B000000000000000000000000000000000003A
:1006C000000000000000000000000000000000002A
:1006D000000000000000000000000000000000001A
:1006E0000000000000000034CAFFFFFFFFFFFFFF13
:1006F000FFFFFFFFFFFFFFFFFFFFFFFFFFFFFFFF0A
:10070000FFFFFFFFFFFFFFFFFFFFFFFFFFFFFFFFF9
:10071000FFFFFFFFFFFFFFFFFFFFFFFFFFFFFFFFE9
:10072000FFFFFFFFFFFFFFFFFFFFFFFFFFFFFFFFD9
:10073000FFFFFFFFFFFFFFFF0000000000000000C1
:1007400000000000000000000000000000000000A9
:100750000000000000000000000000000000000099
:100760000000000000000000000000000000000089
:100770000000000000000000000000000000000079
:1007800000000000163452708EACCAE8FFFFFFFF75
:10079000FFFFFFFFFFFFFFFFFFFFFFFFFFFFFFFF69
:1007A000FFFFFFFFFFFFFFFFFFFFFFFFFFFFFFFF59
:1007B000FFFFFFFFFFFFFFFFFFFFFFFFFFFFFFFF49
:1007C000FFFFFFFFFFFFFFFFFFFFFFFFFFFFFFFF39
:1007D000FFFFFFFFFFFFFFFF000000000000000021
:1007E0000000000000000000000000000000000009
:1007F00000000000000000000000000000000000F9
:1008000000000000000000000000000000000000E8
:1008100000000000000000000000000000000000D8
:1008200002132434455666778898A9BACADBECFCD3
:10083000FFFFFFFFFFFFFFFFFFFFFFFFFFFFFFFFC8
:10084000FFFFFFFFFFFFFFFFFFFFFFFFFFFFFFFFB8
:10085000FFFFFFFFFFFFFFFFFFFFFFFFFFFFFFFFA8
:10086000FFFFFFFFFFFFFFFFFFFFFFFFFFFFFFFF98
:10087000FFFFFFFFFFFFFFFF000000000000000080
:100880000000000000000000000000000000000068
:100890000000000000000000000000000000000058
:1008A0000000000000000000000000000000000048
:1008B0000000000000000000000000000006121D03
:1008C0002934404C57636E7A85919CA8B3BFCBD630
:1008D000E2EDF9FFFFFFFFFFFFFFFFFFFFFFFFFF5D
:1008E000FFFFFFFFFFFFFFFFFFFFFFFFFFFFFFFF18
:1008F000FFFFFFFFFFFFFFFFFFFFFFFFFFFFFFFF08
:10090000FFFFFFFFFFFFFFFFFFFFFFFFFFFFFFFFF7
:10091000FFFFFFFFFFFFFFFF0000000000000000DF
:1009200000000000000000000000000000000000C7
:1009300000000000000000000000000000000000B7
:1009400000000000000000000000000000000000A7
:100950000000000000000000000008111A232C34E1
:100960003D464F586169727B848D969EA7B0B9C28F
:10097000CAD3DCE5EEF7FFFFFFFFFFFFFFFFFFFF3E
:10098000FFFFFFFFFFFFFFFFFFFFFFFFFFFFFFFF77
:10099000FFFFFFFFFFFFFFFFFFFFFFFFFFFFFFFF67
:1009A000FFFFFFFFFFFFFFFFFFFFFFFFFFFFFFFF57
:1009B000FFFFFFFFFFFFFFFF00000000000000003F
:1009C0000000000000000000000000000000000027
:1009D0000000000000000000000000000000000017
:1009E0000000000000000000000000000000000007
:1009F000000000000000020A11181F262D343C439D
:100A00004A51585F666E757C838A9198A0A7AEB5EF
:100A1000BCC3CAD2D9E0E7EEF5FCFFFFFFFFFFFF42
:100A2000FFFFFFFFFFFFFFFFFFFFFFFFFFFFFFFFD6
:100A3000FFFFFFFFFFFFFFFFFFFFFFFFFFFFFFFFC6
:100A4000FFFFFFFFFFFFFFFFFFFFFFFFFFFFFFFFB6
:100A5000FFFFFFFFFFFFFFFF00000000000000009E
:100A60000000000000000000000000000000000086
:100A70000000000000000000000000000000000076
:100A80000000000000000000000000000000000066
:100A9000000000040A10161C22282E343A40464C4E
:100AA00052585E646A70767C82898E949BA0A7AC53
:100AB000B2B9BEC5CAD0D7DCE3E8EEF5FAFFFFFF56
:100AC000FFFFFFFFFFFFFFFFFFFFFFFFFFFFFFFF36
:100AD000FFFFFFFFFFFFFFFFFFFFFFFFFFFFFFFF26
:100AE000FFFFFFFFFFFFFFFFFFFFFFFFFFFFFFFF16
:100AF000FFFFFFFFFFFFFFFF0000000000000000FE
:100B000000000000000000000000000000000000E5
:100B100000000000000000000000000000000000D5
:100B200000000000000000000000000000000001C4
:100B3000060B10151B20252A2F343A3F44494E54EA
:100B4000595E63686D73787D82878C92979CA1A6AD
:100B5000ABB1B6BBC0C5CBD0D5DADFE4EAEFF4F970
:100B6000FEFFFFFFFFFFFFFFFFFFFFFFFFFFFFFF96
:100B7000FFFFFFFFFFFFFFFFFFFFFFFFFFFFFFFF85
:100B8000FFFFFFFFFFFFFFFFFFFFFFFFFFFFFFFF75
:100B9000FFFFFFFFFFFFFFFF00000000000000005D
:100BA0000000000000000000000000000000000045
:100BB0000000000000000000000000000000000035
:100BC00000000000000000000000000003070C10FF
:100BD00015191E22272B3034393E42474B505459A9
:100BE0005D62666B7074797D82868B8F94989DA20E
:100BF000A6ABAFB4B8BDC1C6CACFD4D8DDE1E6EA72
:100C0000EFF3F8FCFFFFFFFFFFFFFFFFFFFFFFFF1A
:100C1000FFFFFFFFFFFFFFFFFFFFFFFFFFFFFFFFE4
:100C2000FFFFFFFFFFFFFFFFFFFFFFFFFFFFFFFFD4
:100C3000FFFFFFFFFFFFFFFF0000000000000000BC
:100C400000000000000000000000000000000000A4
:100C50000000000000000000000000000000000094
:100C600000000000000000000004080C1014181C14
:100C70002024282C3034393D4145494D5155595D8A
:100C80006165696D7175797D82868A8E92969A9E6C
:100C9000A2A6AAAEB2B6BABEC2C6CACFD3D7DBDF4F
:100CA000E3E7EBEFF3F7FBFFFFFFFFFFFFFFFFFFC4
:100CB000FFFFFFFFFFFFFFFFFFFFFFFFFFFFFFFF44
:100CC000FFFFFFFFFFFFFFFFFFFFFFFFFFFFFFFF34
:100CD000FFFFFFFFFFFFFFFF00000000000000001C
:100CE0000000000000000000000000000000000004
:100CF00000000000000000000000000000000000F4
:100D000000000000000105090C1014171B1F22260B
:100D10002A2D3134383C3F43474A4E5255595D6085
:100D200064686B6F73767A7E8185898C9094979BCB
:100D30009FA2A6AAADB1B5B8BCC0C3C7CACED2D512
:100D4000D9DDE0E4E8EBEFF3F6FAFEFFFFFFFFFF8B
:100D5000FFFFFFFFFFFFFFFFFFFFFFFFFFFFFFFFA3
:100D6000FFFFFFFFFFFFFFFFFFFFFFFFFFFFFFFF93
:100D7000FFFFFFFFFFFFFFFF00000000000000007B
:100D80000000000000000000000000000000000063
:100D90000000000000000000000000000000000053
:100DA00000000206090C1013161A1D2024272A2EF3
:100DB0003134383B3E4245484C4F5256595C606393
:100DC000676A6D7074777A7E8184888B8F9295982C
:100DD0009C9FA2A6A9ACB0B3B7BABDC1C4C7CACEC6
:100DE000D1D4D8DBDEE2E5E8ECEFF3F6F9FCFFFF67
:100DF000FFFFFFFFFFFFFFFFFFFFFFFFFFFFFFFF03
:100E0000FFFFFFFFFFFFFFFFFFFFFFFFFFFFFFFFF2
:100E1000FFFFFFFFFFFFFFFF0000000000000000DA
:100E200000000000000000000000000000000000C2
:100E300000000000000000000000000000000004AE
:100E4000070A0D101316191C1F2225282B2E3134CA
:100E5000383B3E4144474A4D505356595C5F6265AA
:100E6000696C6F7275787B7E8184878A8D9093968A
:100E70009A9DA0A3A6A9ACAFB2B5B8BBBEC1C4C76A
:100E8000CACED1D4D7DADDE0E3E6E9ECEFF2F5F84B
:100E9000FBFFFFFFFFFFFFFFFFFFFFFFFFFFFFFF66
:100EA000FFFFFFFFFFFFFFFFFFFFFFFFFFFFFFFF52
:100EB000FFFFFFFFFFFFFFFF00000000000000003A
:100EC0000000000000000000000000000000000022
:100ED00000000000000000000000000204070A0DEE
:100EE000101315181B1E212426292C2F3234373AB3
:100EF0003D404345484B4E515456595C5F626567CF
:100F00006A6D707376787B7E818487898C8F9295E9
:100F1000989A9DA0A3A6A9ABAEB1B4B7BABCBFC204
:100F2000C5C8CACDD0D3D6D9DBDEE1E4E7EAECEF21
:100F3000F2F5F8FBFDFFFFFFFFFFFFFFFFFFFFFFE5
:100F4000FFFFFFFFFFFFFFFFFFFFFFFFFFFFFFFFB1
:100F5000FFFFFFFFFFFFFFFF000000000000000099
:100F60000000000000000000000000000000000081
:100F700000000000000000000205080A0D10121514
:100F8000181A1D1F2225272A2D2F3234373A3C3FAD
:100F90004244474A4C4F515457595C5F61646669FB
:100FA0006C6E717476797C7E818386898B8E919349
:100FB00096989B9EA0A3A6A8ABAEB0B3B5B8BBBD98
:100FC000C0C3C5C8CACDD0D2D5D8DADDE0E2E5E7E6
:100FD000EAEDEFF2F5F7FAFCFFFFFFFFFFFFFFFF7F
:100FE000FFFFFFFFFFFFFFFFFFFFFFFFFFFFFFFF11
:100FF000FFFFFFFFFFFFFFFF0000000000000000F9
:1010000000000000000000000000000000000000E0
:1010100000000000010306080B0D10121517191C23
:101020001E212326282B2D30323437393C3E4143B4
:1010300046484B4D50525457595C5E616366686B2D
:101040006D70727477797C7E818386888B8D8F92A8
:101050009497999C9EA1A3A6A8ABADAFB2B4B7B923
:10106000BCBEC1C3C6C8CACDCFD2D4D7D9DCDEE19D
:10107000E3E6E8EAEDEFF2F4F7F9FCFEFFFFFFFF2D
:10108000FFFFFFFFFFFFFFFFFFFFFFFFFFFFFFFF70
:10109000FFFFFFFFFFFFFFFF000000000000000058
:1010A0000000000000000000000000000000000040
:1010B00000020406090B0D10121416191B1D202224
:1010C0002427292B2E30323437393B3E40424547C6
:1010D000494C4E50525557595C5E606365676A6C67
:1010E0006E707375777A7C7E818385888A8C8E9109
:1010F0009395989A9C9FA1A3A6A8AAACAFB1B3B6AA
:10110000B8BABDBFC1C4C6C8CACDCFD1D4D6D8DB4A
:10111000DDDFE2E4E6E8EBEDEFF2F4F6F9FBFDFFEC
:10112000FFFFFFFFFFFFFFFFFFFFFFFFFFFFFFFFCF
:10113000FFFFFFFFFFFFFFFF0000000000000000B7
:101140000000000000000000000000000000030597
:1011500007090B0D10121416181A1D1F212325271D
:101160002A2C2E30323437393B3D3F424446484AE0
:101170004C4F51535557595C5E60626467696B6DA3
:101180006F717476787A7C7E81838587898B8E9067
:10119000929496989B9D9FA1A3A6A8AAACAEB0B32B
:1011A000B5B7B9BBBDC0C2C4C6C8CBCDCFD1D3D5EE
:1011B000D8DADCDEE0E2E5E7E9EBEDEFF2F4F6F8B1
:1011C000FAFCFFFFFFFFFFFFFFFFFFFFFFFFFFFF37
:1011D000FFFFFFFFFFFFFFFF000000000000000017
:1011E0000000000000000000000001030507090BDB
:1011F0000D10121416181A1C1E20222426282A2C20
:101200002E30323437393B3D3F41434547494B4D02
:101210004F51535557595C5E60626466686A6C6EE4
:1012200070727476787A7C7E81838587898B8D8FC6
:1012300091939597999B9D9FA1A3A6A8AAACAEB0A8
:10124000B2B4B6B8BABCBEC0C2C4C6C8CBCDCFD18A
:10125000D3D5D7D9DBDDDFE1E3E5E7E9EBEDEFF26D
:10126000F4F6F8FAFCFEFFFFFFFFFFFFFFFFFFFFB2
:10127000FFFFFFFFFFFFFFFF000000000000000076
:1012800000000000000000020406080A0C0E0F1106
:10129000131517191B1D1F21232527292B2D2F312E
:1012A000333436383A3C3E40424446484A4C4E502D
:1012B000525456585A5B5D5F61636567696B6D6F29
:1012C00071737577797B7D7F80828486888A8C8E26
:1012D00090929496989A9C9EA0A2A4A5A7A9ABAD23
:1012E000AFB1B3B5B7B9BBBDBFC1C3C5C7C9CACC20
:1012F000CED0D2D4D6D8DADCDEE0E2E4E6E8EAEC1E
:10130000EEF0F1F3F5F7F9FBFDFFFFFFFFFFFFFF45
:10131000FFFFFFFFFFFFFFFF0000000000000000D5
:1013200000000001030406080A0C0E0F1113151724
:10133000191B1C1E2022242628292B2D2F31333443
:1013400036383A3C3E4041434547494B4D4E50525A
:101350005456585A5B5D5F61636566686A6C6E706F
:1013600072737577797B7D7F80828486888A8C8D85
:101370008F91939597999A9C9EA0A2A4A5A7A9AB9B
:10138000ADAFB1B2B4B6B8BABCBEBFC1C3C5C7C9B0
:10139000CACCCED0D2D4D6D7D9DBDDDFE1E3E4E6C8
:1013A000E8EAECEEF0F1F3F5F7F9FBFCFEFFFFFFE6
:1013B000FFFFFFFFFFFFFFFF000000000000000035
:1013C00001030507080A0C0E0F11131517181A1C34
:1013D0001E1F21232526282A2C2D2F313334363861
:1013E0003A3C3D3F41434446484A4B4D4F5152548D
:1013F00056585A5B5D5F6162646668696B6D6F70B9
:1014000072747678797B7D7F8082848687898B8DE4
:101410008F9092949697999B9D9EA0A2A4A5A7A910
:10142000ABACAEB0B2B4B5B7B9BBBCBEC0C2C3C53D
:10143000C7C9CACCCED0D2D3D5D7D9DADCDEE0E169
:10144000E3E5E7E9EAECEEF0F1F3F5F7F8FAFCFE94
:10145000FFFFFFFFFFFFFFFF000000000002040589
:1014600007090A0C0E0F11131416181A1B1D1F2042
:1014700022242527292A2C2E2F31333436383A3B83
:101480003D3F4042444547494A4C4E4F51535556C3
:10149000585A5B5D5F6062646567696A6C6E6F7104
:1014A000737576787A7B7D7F8082848587898A8C44
:1014B0008E9091939596989A9B9D9FA0A2A4A5A784
:1014C000A9AAACAEB0B1B3B5B6B8BABBBDBFC0C2C5
:1014D000C4C5C7C9CBCCCED0D1D3D5D6D8DADBDD05
:1014E000DFE0E2E4E5E7E9EBECEEF0F1F3F5F6F846
:1014F000FAFBFDFFFFFFFFFF000102040607090BD7
:101500000C0E0F1113141617191B1C1E2021232457
:101510002628292B2C2E303133343638393B3D3EAA
:10152000404143454648494B4D4E505253555658FD
:101530005A5B5D5E6062636566686A6B6D6F707250
:10154000737577787A7B7D7F8082848587888A8CA3
:101550008D8F9092949597989A9C9D9FA1A2A4A5F7
:10156000A7A9AAACADAFB1B2B4B6B7B9BABCBEBF49
:10157000C1C2C4C6C7C9CBCCCECFD1D3D4D6D7D99C
:10158000DBDCDEDFE1E3E4E6E8E9EBECEEF0F1F3EF
:10159000F4F6F8F9FBFCFEFF050608090B0C0E0F2C
:1015A0001112141617191A1C1D1F20222325272873
:1015B0002A2B2D2E303133353638393B3C3E3F41D6
:1015C00042444647494A4C4D4F5052535557585A3A
:1015D0005B5D5E606163646668696B6C6E6F71729F
:1015E000747577797A7C7D7F8082838586888A8B03
:1015F0008D8E909193949697999B9C9E9FA1A2A467
:10160000A5A7A8AAACADAFB0B2B3B5B6B8B9BBBDCB
:10161000BEC0C1C3C4C6C7C9CACCCECFD1D2D4D52F
:10162000D7D8DADCDDDFE0E2E3E5E6E8E9EBEDEE92
:10163000F0F1F3F4F6F7F9FA090B0C0E0F1112148E
:101640001517181A1B1D1E202123242627292A2C92
:101650002D2F303233343637393A3C3D3F40424308
:10166000454648494B4C4E4F5152545557585A5B7A
:101670005D5E606163646667686A6B6D6E707173EE
:10168000747677797A7C7D7F808283858688898B62
:101690008C8E8F919294959798999B9C9E9FA1A2D6
:1016A000A4A5A7A8AAABADAEB0B1B3B4B6B7B9BA4A
:1016B000BCBDBFC0C2C3C5C6C8C9CACCCDCFD0D2BD
:1016C000D3D5D6D8D9DBDCDEDFE1E2E4E5E7E8EA32
:1016D000EBEDEEF0F1F3F4F60E0F111214151618EF
:1016E000191B1C1E1F202223252628292A2C2D2FBA
:1016F000303233343637393A3C3D3E40414344463C
:1017000047484A4B4D4E505152545557585A5B5CBE
:101710005E5F616264656768696B6C6E6F7072733F
:10172000757678797A7C7D7F808283858687898AC1
:101730008C8D8E909193949697989A9B9D9EA0A144
:10174000A3A4A5A7A8AAABADAEAFB1B2B4B5B7B8C4
:10175000B9BBBCBEBFC1C2C3C5C6C8C9CACCCDCF48
:10176000D0D2D3D5D6D7D9DADCDDDFE0E1E3E4E6C9
:10177000E7E8EAEBEDEEF0F11213151618191A1C52
:101780001D1E20212324252728292B2C2E2F3032E3
:1017900033343637393A3B3D3E4041424445464872
:1017A000494B4C4D4F505153545657585A5B5C5E01
:1017B0005F616263656667696A6C6D6E7071727491
:1017C000757778797B7C7D7F808283848687888A21
:1017D0008B8D8E8F919293959698999A9C9D9EA0B1
:1017E000A1A3A4A5A7A8A9ABACAEAFB0B2B3B4B641
:1017F000B7B9BABBBDBEBFC1C2C4C5C6C8C9CACCD1
:10180000CDCFD0D1D3D4D6D7D8DADBDCDEDFE1E25E
:10181000E3E5E6E7E9EAECED1617191A1B1D1E1FB2
:10182000212223252627292A2B2D2E2F313233340E
:101830003637383A3B3C3E3F404243444647484AAD
:101840004B4C4E4F505253545657585A5B5C5E5F48
:10185000606263646667686A6B6C6E6F70727374E3
:101860007677787A7B7C7E7F808183848587888980
:101870008B8C8D8F90919394959798999B9C9D9F1D
:10188000A0A1A3A4A5A7A8A9ABACADAFB0B1B3B4B8
:10189000B5B7B8B9BBBCBDBFC0C1C3C4C5C7C8C953
:1018A000CACCCDCED0D1D2D4D5D6D8D9DADCDDDEF3
:1018B000E0E1E2E4E5E6E8E91A1B1C1D1F20212314
:1018C00024252628292A2C2D2E2F31323334363741
:1018D000383A3B3C3D3F40414344454648494A4CE9
:1018E0004D4E4F515253555657585A5B5C5E5F6090
:1018F000616364656668696A6C6D6E6F7172737539
:101900007677787A7B7C7E7F8081838485878889DF
:101910008A8C8D8E90919293959697999A9B9C9E86
:101920009FA0A1A3A4A5A7A8A9AAACADAEB0B1B22F
:10193000B3B5B6B7B9BABBBCBEBFC0C2C3C4C5C7D6
:10194000C8C9CACCCDCED0D1D2D3D5D6D7D9DADB7F
:10195000DCDEDFE0E2E3E4E51D1E1F212223242676
:101960002728292B2C2D2E30313233353637383974
:101970003B3C3D3E40414243454647484A4B4C4D27
:101980004F50515253555657585A5B5C5D5F6061DA
:101990006264656667696A6B6C6E6F70717274758C
:1019A0007677797A7B7C7E7F80818384858688893F
:1019B0008A8B8D8E8F90919394959698999A9B9DF2
:1019C0009E9FA0A2A3A4A5A7A8A9AAACADAEAFB0A4
:1019D000B2B3B4B5B7B8B9BABCBDBEBFC1C2C3C457
:1019E000C6C7C8C9CACCCDCECFD1D2D3D4D6D7D80A
:1019F000D9DBDCDDDEE0E1E22021232425262729D6
:101A00002A2B2C2D2F3031323335363738393B3CA9
:101A10003D3E3F41424344454748494A4B4D4E4F66
:101A200050515354555657595A5B5C5D5F60616223
:101A30006365666768696A6C6D6E6F7072737475E2
:101A40007678797A7B7C7E7F8081828485868788A0
:101A50008A8B8C8D8E9091929394969798999A9C5C
:101A60009D9E9FA0A2A3A4A5A6A8A9AAABACAEAF19
:101A7000B0B1B2B4B5B6B7B8BABBBCBDBEC0C1C2D6
:101A8000C3C4C6C7C8C9CACCCDCECFD0D2D3D4D593
:101A9000D6D8D9DADBDCDEDF2324252728292A2B38
:101AA0002C2E2F3031323334363738393A3B3D3EE5
:101AB0003F4041424445464748494B4C4D4E4F50AC
:101AC000525354555657595A5B5C5D5E6061626370
:101AD00064656768696A6B6C6D6F70717273747638
:101AE0007778797A7B7D7E7F8081828485868788FE
:101AF000898B8C8D8E8F90929394959697989A9BC4
:101B00009C9D9E9FA1A2A3A4A5A6A8A9AAABACAD8B
:101B1000AFB0B1B2B3B4B6B7B8B9BABBBDBEBFC04F
:101B2000C1C2C4C5C6C7C8C9CBCCCDCECFD0D1D316
:101B3000D4D5D6D7D8DADBDC262728292A2B2D2E98
:101B40002F3031323334363738393A3B3C3E3F4020
:101B500041424344454748494A4B4C4D4E505152EF
:101B60005354555657595A5B5C5D5E5F60626364BF
:101B7000656667686A6B6C6D6E6F7071737475768D
:101B80007778797A7C7D7E7F80818283858687885D
:101B9000898A8B8C8E8F9091929394959798999A2D
:101BA0009B9C9D9FA0A1A2A3A4A5A6A8A9AAABACFB
:101BB000ADAEAFB1B2B3B4B5B6B7B8BABBBCBDBECB
:101BC000BFC0C1C3C4C5C6C7C8C9CBCCCDCECFD09A
:101BD000D1D2D4D5D6D7D8D9282A2B2C2D2E2F30F8
:101BE00031323335363738393A3B3C3D3E3F41425E
:101BF000434445464748494A4B4D4E4F5051525336
:101C000054555658595A5B5C5D5E5F60616264650D
:101C1000666768696A6B6C6D6F70717273747576E4
:101C20007778797B7C7D7E7F8081828384868788BC
:101C3000898A8B8C8D8E8F90929394959697989994
:101C40009A9B9D9E9FA0A1A2A3A4A5A6A7A9AAAB6B
:101C5000ACADAEAFB0B1B2B4B5B6B7B8B9BABBBC43
:101C6000BDBEC0C1C2C3C4C5C6C7C8C9CACCCDCE1B
:101C7000CFD0D1D2D3D4D5D72B2C2D2E2F3031325B
:101C80003334363738393A3B3C3D3E3F404142439E
:101C900044464748494A4B4C4D4E4F50515253547D
:101CA000555758595A5B5C5D5E5F6061626364655D
:101CB0006668696A6B6C6D6E6F707172737475763D
:101CC00078797A7B7C7D7E7F80818283848586871C
:101CD000898A8B8C8D8E8F909192939495969799FB
:101CE0009A9B9C9D9E9FA0A1A2A3A4A5A6A7A8AADB
:101CF000ABACADAEAFB0B1B2B3B4B5B6B7B8B9BBBB
:101D0000BCBDBEBFC0C1C2C3C4C5C6C7C8C9CACC9A
:101D1000CDCECFD0D1D2D3D42D2E2F3031323334BB
:101D2000363738393A3B3C3D3E3F404142434445DB
:101D3000464748494A4B4C4D4E4F505153545556C7
:101D40005758595A5B5C5D5E5F60616263646566AB
:101D50006768696A6B6C6D6E6F7072737475767795
:101D600078797A7B7C7D7E7F80818283848586877B
:101D700088898A8B8C8D8F90919293949596979861
:101D8000999A9B9C9D9E9FA0A1A2A3A4A5A6A7A84B
:101D9000A9AAABADAEAFB0B1B2B3B4B5B6B7B8B92E
:101DA000BABBBCBDBEBFC0C1C2C3C4C5C6C7C8C91B
:101DB000CACCCDCECFD0D1D22F3031323335363719
:101DC00038393A3B3C3D3E3F40414243444546471B
:101DD00048494A4B4C4D4E4F50515253545556570B
:101DE00058595A5B5C5D5E5F6061626364656667FB
:101DF00068696A6B6C6D6E6F7071727374757677EB
:101E000078797A7B7C7D7E7F8081828384858687DA
:101E100088898A8B8C8D8E8F9091929394959697CA
:101E200098999A9B9C9D9E9FA0A1A2A3A4A5A6A7BA
:101E3000A8A9AAABACADAEAFB0B1B2B3B4B5B6B7AA
:101E4000B8B9BABBBCBDBEBFC0C1C2C3C4C5C6C79A
:101E5000C8C9CBCCCDCECFD0323334353536373878
:101E6000393A3B3C3D3E3F4041424344454647486A
:101E7000494A4B4C4D4E4F5051525354555657585A
:101E8000595A5B5C5D5E5F6061626364656667674B
:101E900068696A6B6C6D6E6F70717273747576774A
:101EA00078797A7B7C7D7E7F80818283848586873A
:101EB00088898A8B8C8D8E8F90919293949596972A
:101EC0009899999A9B9C9D9E9FA0A1A2A3A4A5A628
:101ED000A7A8A9AAABACADAEAFB0B1B2B3B4B5B61A
:101EE000B7B8B9BABBBCBDBEBFC0C1C2C3C4C5C60A
:101EF000C7C8C9CACBCBCCCD343435363738393ADC
:101F00003B3C3D3E3F404142434445464748494AA9
:101F10004A4B4C4D4E4F50515253545556575859A9
:101F20005A5B5C5D5E5F5F606162636465666768A3
:101F3000696A6B6C6D6E6F7071727374757576779C
:101F400078797A7B7C7D7E7F808182838485868799
:101F500088898A8A8B8C8D8E8F9091929394959696
:101F60009798999A9B9C9D9E9FA0A0A1A2A3A4A58F
:101F7000A6A7A8A9AAABACADAEAFB0B1B2B3B4B589
:101F8000B5B6B7B8B9BABBBCBDBEBFC0C1C2C3C489
:101F9000C5C6C7C8C9CACBCB35363738393A3B3C3A
:101FA0003D3E3F40414242434445464748494A4BF3
:101FB0004C4D4E4F50505152535455565758595AF4
:101FC0005B5C5D5D5E5F60616263646566676869F6
:101FD0006A6B6B6C6D6E6F707172737475767778F7
:101FE00079797A7B7C7D7E7F8081828384858686F9
:101FF0008788898A8B8C8D8E8F90919293949495FB
:10200000969798999A9B9C9D9E9FA0A1A2A2A3A4FB
:10201000A5A6A7A8A9AAABACADAEAFAFB0B1B2B3FD
:10202000B4B5B6B7B8B9BABBBCBDBDBEBFC0C1C2FE
:10203000C3C4C5C6C7C8C9CA3738393A3B3C3D3E98
:102040003F3F40414243444546474849494A4B4C3B
:102050004D4E4F50515253535455565758595A5B41
:102060005C5D5D5E5F606162636465666767686949
:102070006A6B6C6D6E6F7070717273747576777851
:10208000797A7B7B7C7D7E7F808182838484858658
:102090008788898A8B8C8D8E8F8F9091929394955F
:1020A00096979898999A9B9C9D9E9FA0A1A2A3A366
:1020B000A4A5A6A7A8A9AAABACADADAEAFB0B1B26E
:1020C000B3B4B5B6B6B7B8B9BABBBCBDBEBFC0C174
:1020D000C1C2C3C4C5C6C7C8393A3B3C3C3D3E3FFC
:1020E00040414243444445464748494A4B4C4C4D85
:1020F0004E4F50515253545455565758595A5B5C91
:102100005C5D5E5F60616263646465666768696A9E
:102110006B6C6C6D6E6F70717273747475767778AA
:10212000797A7B7C7C7D7E7F8081828383848586B7
:102130008788898A8B8B8C8D8E8F909192939394C4
:1021400095969798999A9B9B9C9D9E9FA0A1A2A3D0
:10215000A3A4A5A6A7A8A9AAABABACADAEAFB0B1DE
:10216000B2B3B3B4B5B6B7B8B9BABBBBBCBDBEBFEA
:10217000C0C1C2C3C3C4C5C63B3B3C3D3E3F40415A
:10218000424243444546474848494A4B4C4D4E4FCE
:102190004F50515253545555565758595A5B5C5CE1
:1021A0005D5E5F6061626263646566676869696AF3
:1021B0006B6C6D6E6F6F7071727374757676777805
:1021C000797A7B7C7C7D7E7F808182838384858617
:1021D000878889898A8B8C8D8E8F90909192939429
:1021E0009596969798999A9B9C9D9D9E9FA0A1A23B
:1021F000A3A3A4A5A6A7A8A9AAAAABACADAEAFB04D
:10220000B0B1B2B3B4B5B6B7B7B8B9BABBBCBDBD5F
:10221000BEBFC0C1C2C3C4C43C3D3E3F40404142BA
:1022200043444545464748494A4B4B4C4D4E4F5019
:1022300050515253545556565758595A5B5B5C5D32
:102240005E5F6061616263646566676768696A6B47
:102250006C6C6D6E6F70717272737475767777785F
:10226000797A7B7C7D7D7E7F808182828384858676
:10227000878888898A8B8C8D8D8E8F90919293938D
:10228000949596979899999A9B9C9D9E9E9FA0A1A4
:10229000A2A3A4A4A5A6A7A8A9A9AAABACADAEAFBA
:1022A000AFB0B1B2B3B4B4B5B6B7B8B9BABABBBCD3
:1022B000BDBEBFBFC0C1C2C33E3E3F40414243431B
:1022C000444546474848494A4B4C4D4D4E4F505166
:1022D000525253545556565758595A5B5B5C5D5E83
:1022E0005F6060616263646565666768696A6A6B9E
:1022F0006C6D6E6F6F7071727373747576777878BA
:10230000797A7B7C7D7D7E7F8081828283848586D5
:10231000878788898A8B8C8C8D8E8F9090919293F1
:10232000949595969798999A9A9B9C9D9E9F9FA00D
:10233000A1A2A3A4A4A5A6A7A8A9A9AAABACADAD28
:10234000AEAFB0B1B2B2B3B4B5B6B7B7B8B9BABB45
:10235000BCBCBDBEBFC0C1C13F404141424344457A
:1023600046464748494A4A4B4C4D4E4E4F505152B3
:102370005353545556575758595A5B5B5C5D5E5FD3
:102380005F6061626364646566676868696A6B6CF4
:102390006C6D6E6F70707172737475757677787915
:1023A000797A7B7C7D7D7E7F808182828384858635
:1023B000868788898A8A8B8C8D8E8F8F9091929355
:1023C00093949596979798999A9B9B9C9D9E9FA076
:1023D000A0A1A2A3A4A4A5A6A7A8A8A9AAABACAD96
:1023E000ADAEAFB0B1B1B2B3B4B5B5B6B7B8B9B9B7
:1023F000BABBBCBDBEBEBFC04041424344444546DB
:10240000474848494A4B4C4C4D4E4F4F5051525300
:1024100053545556575758595A5B5B5C5D5E5F5F26
:102420006061626363646566676768696A6A6B6C4A
:102430006D6E6E6F7071727273747576767778796F
:102440007A7A7B7C7D7E7E7F808181828384858594
:1024500086878889898A8B8C8D8D8E8F90919192B9
:102460009394959596979899999A9B9C9C9D9E9FDD
:10247000A0A0A1A2A3A4A4A5A6A7A8A8A9AAABAC02
:10248000ACADAEAFB0B0B1B2B3B3B4B5B6B7B7B828
:10249000B9BABBBBBCBDBEBF42424344454646473A
:1024A0004849494A4B4C4D4D4E4F50505152535450
:1024B000545556575758595A5B5B5C5D5E5E5F607A
:1024C0006162626364656566676869696A6B6C6CA2
:1024D0006D6E6F70707172737374757677777879CB
:1024E0007A7A7B7C7D7E7E7F8081818283848585F4
:1024F00086878888898A8B8C8C8D8E8F8F9091921D
:102500009393949596969798999A9A9B9C9D9D9E45
:102510009FA0A1A1A2A3A4A4A5A6A7A8A8A9AAAB6D
:10252000ABACADAEAFAFB0B1B2B2B3B4B5B6B6B797
:10253000B8B9B9BABBBCBDBD434444454647484899
:10254000494A4B4B4C4D4E4E4F505151525354549F
:102550005556575858595A5B5B5C5D5E5E5F6061CB
:1025600061626364646566676868696A6B6B6C6DF9
:102570006E6E6F7071717273747475767778787926
:102580007A7B7B7C7D7E7E7F808181828384848553
:1025900086878788898A8B8B8C8D8E8E8F90919180
:1025A000929394949596979798999A9B9B9C9D9EAD
:1025B0009E9FA0A1A1A2A3A4A4A5A6A7A7A8A9AADB
:1025C000ABABACADAEAEAFB0B1B1B2B3B4B4B5B607
:1025D000B7B7B8B9BABBBBBC4445464647484949FA
:1025E0004A4B4C4C4D4E4F4F5051525253545555EF
:1025F00056575858595A5B5B5C5D5E5E5F6061611F
:1026000062636464656666676869696A6B6C6C6D51
:102610006E6F6F7071727273747575767778787982
:102620007A7B7B7C7D7E7E7F8081818283848485B2
:1026300086878788898A8A8B8C8D8D8E8F909091E2
:1026400092939394959696979899999A9B9B9C9D13
:102650009E9E9FA0A1A1A2A3A4A4A5A6A7A7A8A946
:10266000AAAAABACADADAEAFB0B0B1B2B3B3B4B576
:10267000B6B6B7B8B9B9BABB4546474848494A4A59
:102680004B4C4D4D4E4F505051525353545555563F
:10269000575858595A5B5B5C5D5D5E5F6060616274
:1026A000636364656666676868696A6B6B6C6D6EA8
:1026B0006E6F7070717273737475767677787979DE
:1026C0007A7B7B7C7D7E7E7F808181828384848512
:1026D0008686878889898A8B8C8C8D8E8F8F909146
:1026E0009192939494959697979899999A9B9C9C7C
:1026F0009D9E9F9FA0A1A2A2A3A4A4A5A6A7A7A8B0
:10270000A9AAAAABACADADAEAFAFB0B1B2B2B3B4E3
:10271000B5B5B6B7B7B8B9BA46474849494A4B4BB9
:102720004C4D4E4E4F505051525353545556565790
:102730005858595A5B5B5C5D5D5E5F6060616262C8
:102740006364656566676768696A6A6B6C6C6D6E01
:102750006F6F707172727374747576777778797938
:102760007A7B7C7C7D7E7E7F808181828383848571
:102770008686878888898A8B8B8C8D8D8E8F9090AA
:102780009192939394959596979898999A9A9B9CE1
:102790009D9D9E9F9FA0A1A2A2A3A4A4A5A6A7A71A
:1027A000A8A9A9AAABACACADAEAFAFB0B1B1B2B352
:1027B000B4B4B5B6B6B7B8B94848494A4A4B4C4C18
:1027C0004D4E4F4F505151525353545556565758E2
:1027D00058595A5B5B5C5D5D5E5F5F60616262631E
:1027E0006464656667676869696A6B6B6C6D6E6E59
:1027F0006F70707172727374757576777778797A95
:102800007A7B7C7C7D7E7E7F8081818283838485D0
:102810008586878888898A8A8B8C8D8D8E8F8F900C
:10282000919192939494959696979899999A9B9B47
:102830009C9D9D9E9FA0A0A1A2A2A3A4A4A5A6A783
:10284000A7A8A9A9AAABACACADAEAEAFB0B0B1B2BF
:10285000B3B3B4B5B5B6B7B749494A4B4B4C4D4D78
:102860004E4F4F5051525253545455565657585834
:10287000595A5B5B5C5D5D5E5F5F60616162636472
:1028800064656666676868696A6A6B6C6C6D6E6FB2
:102890006F70717172737374757576777878797AF1
:1028A0007A7B7C7C7D7E7E7F808181828383848530
:1028B0008586878788898A8A8B8C8C8D8E8E8F906F
:1028C00090919293939495959697979899999A9BAE
:1028D0009B9C9D9E9E9FA0A0A1A2A2A3A4A4A5A6EE
:1028E000A7A7A8A9A9AAABABACADADAEAFB0B0B12C
:1028F000B2B2B3B4B4B5B6B64A4A4B4C4C4D4E4ED8
:102900004F50505152525354545556565758585987
:102910005A5B5B5C5D5D5E5F5F60616162636364C7
:1029200065656667676869696A6B6B6C6D6E6E6F0B
:102930007070717272737474757676777878797A4C
:102940007A7B7C7C7D7E7E7F80818182838384858F
:10295000858687878889898A8B8B8C8D8D8E8F8FD2
:1029600090919192939494959696979898999A9A13
:102970009B9C9C9D9E9E9FA0A0A1A2A2A3A4A4A557
:10298000A6A7A7A8A9A9AAABABACADADAEAFAFB097
:10299000B1B1B2B3B3B4B5B54A4B4C4C4D4E4E4F3A
:1029A0005051515252535454555657575859595AD9
:1029B0005B5B5C5C5D5E5E5F60616162636364641F
:1029C000656667676868696A6B6B6C6D6D6E6E6F64
:1029D0007071717272737474757677777878797AAA
:1029E0007B7B7C7D7D7E7F7F8081818283838485EC
:1029F000858687878889898A8B8B8C8D8D8E8F8F32
:102A00009091919293939495959697979899999A76
:102A10009B9B9C9C9D9E9F9FA0A1A1A2A3A3A4A5BC
:102A2000A5A6A7A7A8A9A9AAABABACADADAEAFAF01
:102A3000B0B1B1B2B3B3B4B54B4C4D4D4E4F4F5096
:102A400051515253535455555657575859595A5A2C
:102A50005B5C5C5D5E5E5F60606162626364646576
:102A60006666676868696A6A6B6C6C6D6D6E6F6FBD
:102A70007071717273737475757677777879797A06
:102A80007B7B7C7D7D7E7F7F80808182828384844E
:102A9000858686878888898A8A8B8C8C8D8E8E8F96
:102AA00090909192929393949595969797989999DF
:102AB0009A9B9B9C9D9D9E9F9FA0A1A1A2A3A3A426
:102AC000A5A5A6A6A7A8A8A9AAAAABACACADAEAE70
:102AD000AFB0B0B1B2B2B3B44C4D4E4E4F505051F6
:102AE000515253535455555657575859595A5A5B82
:102AF0005C5C5D5E5E5F60606162626363646565CD
:102B00006667676869696A6B6B6C6D6D6E6E6F7016
:102B10007071727273747475767677777879797A62
:102B20007B7B7C7D7D7E7F7F8080818282838484AD
:102B300085868687888889898A8B8B8C8D8D8E8FF8
:102B40008F90919192929394949596969798989944
:102B50009A9A9B9C9C9D9D9E9F9FA0A1A1A2A3A38E
:102B6000A4A5A5A6A6A7A8A8A9AAAAABACACADAED9
:102B7000AEAFAFB0B1B1B2B34D4E4E4F5050515257
:102B80005253545455555657575859595A5A5B5CD5
:102B90005C5D5E5E5F606061616263636465656623
:102BA00067676868696A6A6B6C6C6D6D6E6F6F7071
:102BB0007171727373747475767677787879797ABF
:102BC0007B7B7C7D7D7E7F7F80808182828384840D
:102BD00085868687878889898A8B8B8C8C8D8E8E5B
:102BE0008F909091929293939495959697979899A8
:102BF000999A9A9B9C9C9D9E9E9F9FA0A1A1A2A3F7
:102C0000A3A4A5A5A6A6A7A8A8A9AAAAABABACAD44
:102C1000ADAEAFAFB0B1B1B24E4F4F5051515252B5
:102C200053545455555657575859595A5A5B5C5C2A
:102C30005D5E5E5F5F60616162636364646566667A
:102C400067686869696A6B6B6C6D6D6E6E6F7070CA
:102C500071717273737475757676777878797A7A1C
:102C60007B7B7C7D7D7E7F7F80808182828384846C
:102C700085858687878889898A8A8B8C8C8D8E8EBC
:102C80008F8F90919192929394949596969797980E
:102C900099999A9B9B9C9C9D9E9E9FA0A0A1A1A25E
:102CA000A3A3A4A5A5A6A6A7A8A8A9AAAAABABACAE
:102CB000ADADAEAEAFB0B0B14F4F50515152535316
:102CC000545455565657575859595A5A5B5C5C5D7F
:102CD0005E5E5F5F606161626263646465656667D2
:102CE000676869696A6A6B6C6C6D6D6E6F6F707125
:102CF00071727273747475757677777878797A7A79
:102D00007B7C7C7D7D7E7F7F8080818282838384CB
:102D100085858687878888898A8A8B8B8C8D8D8E1E
:102D20008F8F909091929293939495959696979871
:102D300098999A9A9B9B9C9D9D9E9E9FA0A0A1A1C5
:102D4000A2A3A3A4A5A5A6A6A7A8A8A9A9AAABAB18
:102D5000ACADADAEAEAFB0B0505051515253535474
:102D60005455565657575859595A5A5B5C5C5D5DD5
:102D70005E5F5F606061626263636465656666672B
:102D80006868696A6A6B6B6C6D6D6E6E6F7070717E
:102D900071727373747475767677777879797A7AD5
:102DA0007B7C7C7D7D7E7F7F80808182828383842B
:102DB0008585868687888889898A8B8B8C8C8D8E81
:102DC0008E8F8F90919192929394949595969797D8
:102DD0009899999A9A9B9C9C9D9D9E9F9FA0A0A12B
:102DE000A2A2A3A3A4A5A5A6A6A7A8A8A9A9AAAB81
:102DF000ABACACADAEAEAFAF5051525253535455D5
:102E000055565657575859595A5A5B5C5C5D5D5E2A
:102E10005F5F606061626263636465656666676781
:102E20006869696A6A6B6C6C6D6D6E6F6F707071DA
:102E300072727373747575767677777879797A7A32
:102E40007B7C7C7D7D7E7F7F80808182828383848A
:102E50008585868687888889898A8A8B8C8C8D8DE2
:102E60008E8F8F909091929293939495959696973A
:102E7000989899999A9A9B9C9C9D9D9E9F9FA0A093
:102E8000A1A2A2A3A3A4A5A5A6A6A7A8A8A9A9AAEA
:102E9000AAABACACADADAEAF515252535354555535
:102EA000565657585859595A5A5B5C5C5D5D5E5F7F
:102EB0005F606061616263636464656666676768DA
:102EC00068696A6A6B6B6C6D6D6E6E6F6F70717135
:102ED00072727374747575767677787879797A7B8F
:102EE0007B7C7C7D7D7E7F7F8080818282838384EA
:102EF0008485868687878889898A8A8B8B8C8D8D45
:102F00008E8E8F909091919292939494959596979E
:102F100097989899999A9B9B9C9C9D9E9E9F9FA0F9
:102F2000A0A1A2A2A3A3A4A5A5A6A6A7A7A8A9A954
:102F3000AAAAABACACADADAE525253545455555693
:102F40005657585859595A5A5B5C5C5D5D5E5E5FD6
:102F50006060616162626364646565666767686832
:102F600069696A6B6B6C6C6D6D6E6F6F707071718F
:102F700072737374747575767777787879797A7BEC
:102F80007B7C7C7D7D7E7F7F808081828283838449
:102F90008485868687878888898A8A8B8B8C8C8DA6
:102FA0008E8E8F8F90909192929393949495969603
:102FB00097979899999A9A9B9B9C9D9D9E9E9F9F5F
:102FC000A0A1A1A2A2A3A3A4A5A5A6A6A7A7A8A9BC
:102FD000A9AAAAABABACADAD5353545455555656F4
:102FE00057585859595A5A5B5C5C5D5D5E5E5F602C
:102FF000606161626263636465656666676768698C
:10300000696A6A6B6B6C6D6D6E6E6F6F70717172E9
:10301000727373747475767677777878797A7A7B49
:103020007B7C7C7D7E7E7F7F8080818182838384A8
:10303000848585868787888889898A8B8B8C8C8D07
:103040008D8E8F8F90909191929293949495959666
:103050009697989899999A9A9B9C9C9D9D9E9E9FC5
:103060009FA0A1A1A2A2A3A3A4A5A5A6A6A7A7A825
:10307000A9A9AAAAABABACAD535454555556575752
:10308000585859595A5A5B5C5C5D5D5E5E5F5F6083
:1030900061616262636364646566666767686869E4
:1030A000696A6B6B6C6C6D6D6E6E6F707071717246
:1030B000727374747575767677777879797A7A7BA6
:1030C0007B7C7C7D7E7E7F7F808081818283838408
:1030D000848585868687888889898A8A8B8B8C8D6A
:1030E0008D8E8E8F8F9091919292939394949596CA
:1030F000969797989899999A9B9B9C9C9D9D9E9E2C
:103100009FA0A0A1A1A2A2A3A3A4A5A5A6A6A7A78C
:10311000A8A8A9AAAAABABAC5454555556575758B2
:103120005859595A5A5B5C5C5D5D5E5E5F5F6060DA
:10313000616262636364646565666767686869693C
:103140006A6A6B6B6C6D6D6E6E6F6F7070717172A1
:10315000737374747575767677787879797A7A7B03
:103160007B7C7C7D7E7E7F7F808081818283838467
:10317000848585868687878889898A8A8B8B8C8CCB
:103180008D8E8E8F8F90909191929293949495952D
:10319000969697979898999A9A9B9B9C9C9D9D9E92
:1031A0009F9FA0A0A1A1A2A2A3A3A4A5A5A6A6A7F4
:1031B000A7A8A8A9AAAAABAB545556565757585812
:1031C00059595A5A5B5B5C5D5D5E5E5F5F60606132
:1031D0006162636364646565666667676868696A97
:1031E0006A6B6B6C6C6D6D6E6E6F707071717272FC
:1031F000737374747575767777787879797A7A7B62
:103200007B7C7D7D7E7E7F7F8080818182828384C6
:10321000848585868687878888898A8A8B8B8C8C2B
:103220008D8D8E8E8F8F9091919292939394949591
:1032300095969797989899999A9A9B9B9C9C9D9EF6
:103240009E9F9FA0A0A1A1A2A2A3A4A4A5A5A6A65B
:10325000A7A7A8A8A9A9AAAB555656575758585971
:10326000595A5A5B5B5C5D5D5E5E5F5F6060616189
:103270006262636364656566666767686869696AF0
:103280006A6B6B6C6D6D6E6E6F6F70707171727258
:10329000737374757576767777787879797A7A7BBF
:1032A0007B7C7D7D7E7E7F7F808081818282838426
:1032B00084858586868787888889898A8A8B8C8C8D
:1032C0008D8D8E8E8F8F90909191929293949495F4
:1032D0009596969797989899999A9A9B9C9C9D9D5C
:1032E0009E9E9F9FA0A0A1A1A2A2A3A4A4A5A5A6C3
:1032F000A6A7A7A8A8A9A9AA5656575758585959D2
:103300005A5A5B5B5C5D5D5E5E5F5F6060616162DF
:1033100062636364646565666767686869696A6A49
:103320006B6B6C6C6D6D6E6E6F6F707171727273B2
:10333000737474757576767777787879797A7A7B1D
:103340007C7C7D7D7E7E7F7F808081818282838385
:1033500084858586868787888889898A8A8B8B8CED
:103360008C8D8D8E8F8F9090919192929393949457
:103370009595969697979899999A9A9B9B9C9C9DC0
:103380009D9E9E9F9FA0A0A1A1A2A3A3A4A4A5A52A
:10339000A6A6A7A7A8A8A9A9565757585859595A31
:1033A0005A5B5B5C5C5D5E5E5F5F60606161626238
:1033B00063636464656566666767686869696A6AA5
:1033C0006B6C6C6D6D6E6E6F6F707071717272730D
:1033D0007374747575767677777878797A7A7B7B7B
:1033E0007C7C7D7D7E7E7F7F8080818182828383E5
:1033F00084848585868787888889898A8A8B8B8C4F
:103400008C8D8D8E8E8F8F909091919292939394BC
:10341000959596969797989899999A9A9B9B9C9C24
:103420009D9D9E9E9F9FA0A0A1A1A2A3A3A4A4A591
:10343000A5A6A6A7A7A8A8A95757585859595A5A90
:103440005B5B5C5C5D5D5E5E5F6060616162626390
:10345000636464656566666767686869696A6A6BFC
:103460006B6C6C6D6D6E6E6F6F707071717272736C
:103470007374747576767777787879797A7A7B7BD6
:103480007C7C7D7D7E7E7F7F808081818282838344
:103490008484858586868787888889898A8B8B8CB2
:1034A0008C8D8D8E8E8F8F9090919192929393941C
:1034B00094959596969797989899999A9A9B9B9C8C
:1034C0009C9D9D9E9E9F9FA0A1A1A2A2A3A3A4A4F8
:1034D000A5A5A6A6A7A7A8A857585859595A5A5BF0
:1034E0005B5C5C5D5D5E5E5F5F60606161626263EC
:1034F0006364646565666767686869696A6A6B6B57
:103500006C6C6D6D6E6E6F6F7070717172727373C3
:103510007474757576767777787879797A7A7B7B33
:103520007C7C7D7D7E7E7F7F8080818182828383A3
:103530008484858586868787888889898A8A8B8B13
:103540008C8C8D8D8E8E8F8F909091919292939383
:1035500094949595969697979899999A9A9B9B9CEF
:103560009C9D9D9E9E9F9FA0A0A1A1A2A2A3A3A45B
:10357000A4A5A5A6A6A7A7A8585859595A5A5B5B4F
:103580005C5C5D5D5E5E5F5F606061616262636343
:103590006464656566666767686869696A6A6B6BB3
:1035A0006C6C6D6D6E6E6F6F707071717272737323
:1035B0007474757576767777787879797A7A7B7B93
:1035C0007C7C7D7D7E7E7F7F808081818282838303
:1035D0008484858586868787888889898A8A8B8B73
:1035E0008C8C8D8D8E8E8F8F9090919192929393E3
:1035F0009494959596969797989899999A9A9B9B53
:103600009C9C9D9D9E9E9F9FA0A0A1A1A2A2A3A3C2
:10361000A4A4A5A5A6A6A7A75859595A5A5B5B5CAE
:103620005C5D5D5E5E5F5F6060616162626363649A
:1036300064656566666767686869696A6A6B6B6C0A
:103640006C6D6D6E6E6F6F7070717171727273737D
:103650007474757576767777787879797A7A7B7BF2
:103660007C7C7D7D7E7E7F7F808081818282838362
:103670008484858586868787888889898A8A8B8BD2
:103680008C8C8D8D8E8E8F8F8F9090919192929346
:10369000939494959596969797989899999A9A9BBA
:1036A0009B9C9C9D9D9E9E9F9FA0A0A1A1A2A2A32A
:1036B000A3A4A4A5A5A6A6A759595A5A5B5B5C5C0E
:1036C0005D5D5E5E5F5F60606161626263636464F2
:1036D00065656666666767686869696A6A6B6B6C68
:1036E0006C6D6D6E6E6F6F707071717272737374DA
:1036F0007475757676777777787879797A7A7B7B4F
:103700007C7C7D7D7E7E7F7F8080818182828383C1
:10371000848485858686878788888889898A8A8B34
:103720008B8C8C8D8D8E8E8F8F90909191929293A9
:1037300093949495959696979798989999999A9A1B
:103740009B9B9C9C9D9D9E9E9F9FA0A0A1A1A2A291
:10375000A3A3A4A4A5A5A6A6595A5A5B5B5C5C5D6D
:103760005D5E5E5F5F60606161626263636364644B
:10377000656566666767686869696A6A6B6B6C6CC1
:103780006D6D6E6E6E6F6F70707171727273737437
:1037900074757576767777787879797A7A7A7B7BAB
:1037A0007C7C7D7D7E7E7F7F808081818282838321
:1037B000848485858586868787888889898A8A8B97
:1037C0008B8C8C8D8D8E8E8F8F909091919192920B
:1037D00093939494959596969797989899999A9A81
:1037E0009B9B9C9C9C9D9D9E9E9F9FA0A0A1A1A2F7
:1037F000A2A3A3A4A4A5A5A65A5A5B5B5C5C5D5DCD
:103800005E5E5F5F606061616162626363646465A4
:10381000656666676768686969696A6A6B6B6C6C1C
:103820006D6D6E6E6F6F7070717172727273737492
:1038300074757576767777787879797A7A7B7B7B09
:103840007C7C7D7D7E7E7F7F808081818282838380
:10385000848484858586868787888889898A8A8BF7
:103860008B8C8C8D8D8D8E8E8F8F9090919192926E
:103870009393949495959696969797989899999AE4
:103880009A9B9B9C9C9D9D9E9E9E9F9FA0A0A1A15C
:10389000A2A2A3A3A4A4A5A55A5B5B5C5C5D5D5E2C
:1038A0005E5F5F5F606061616262636364646565FF
:1038B0006666676767686869696A6A6B6B6C6C6D76
:1038C0006D6E6E6E6F6F70707171727273737474EF
:1038D00075757576767777787879797A7A7B7B7C67
:1038E0007C7C7D7D7E7E7F7F8080818182828383E0
:1038F000838484858586868787888889898A8A8A59
:103900008B8B8C8C8D8D8E8E8F8F909091919192D0
:103910009293939494959596969797989899999948
:103920009A9A9B9B9C9C9D9D9E9E9F9FA0A0A0A1C0
:10393000A1A2A2A3A3A4A4A55B5B5C5C5D5D5E5E8B
:103940005F5F5F6060616162626363646465656557
:1039500066666767686869696A6A6B6B6B6C6C6DD1
:103960006D6E6E6F6F70707171717272737374744B
:1039700075757676777777787879797A7A7B7B7CC4
:103980007C7D7D7D7E7E7F7F80808181828283833E
:1039900083848485858686878788888989898A8AB9
:1039A0008B8B8C8C8D8D8E8E8F8F8F909091919232
:1039B00092939394949595959696979798989999AC
:1039C0009A9A9B9B9B9C9C9D9D9E9E9F9FA0A0A125
:1039D000A1A1A2A2A3A3A4A45B5C5C5D5D5E5E5EEC
:1039E0005F5F6060616162626363636464656566B2
:1039F00066676768686869696A6A6B6B6C6C6D6D2D
:103A00006D6E6E6F6F7070717172727373737474A8
:103A100075757676777778787879797A7A7B7B7C22
:103A20007C7D7D7D7E7E7F7F80808181828282839E
:103A300083848485858686878787888889898A8A1A
:103A40008B8B8C8C8C8D8D8E8E8F8F909091919294
:103A50009292939394949595969697979798989910
:103A6000999A9A9B9B9C9C9C9D9D9E9E9F9FA0A08B
:103A7000A1A1A1A2A2A3A3A45C5C5D5D5D5E5E5F4B
:103A80005F6060616162626263636464656566660B
:103A9000676767686869696A6A6B6B6B6C6C6D6D88
:103AA0006E6E6F6F70707071717272737374747404
:103AB00075757676777778787979797A7A7B7B7C81
:103AC0007C7D7D7D7E7E7F7F8080818182828283FE
:103AD00083848485858686868787888889898A8A7B
:103AE0008B8B8B8C8C8D8D8E8E8F8F8F90909191F8
:103AF0009292939394949495959696979798989973
:103B000099999A9A9B9B9C9C9D9D9D9E9E9F9FA0F0
:103B1000A0A1A1A2A2A2A3A35C5D5D5D5E5E5F5FAA
:103B20006060616161626263636464656565666665
:103B3000676768686969696A6A6B6B6C6C6D6D6DE3
:103B40006E6E6F6F70707171717272737374747561
:103B500075757676777778787979797A7A7B7B7CE0
:103B60007C7D7D7D7E7E7F7F80808181828282835D
:103B700083848485858686868787888889898A8ADA
:103B80008A8B8B8C8C8D8D8E8E8E8F8F9090919159
:103B900092929293939494959596969697979898D7
:103BA00099999A9A9A9B9B9C9C9D9D9E9E9E9F9F55
:103BB000A0A0A1A1A2A2A2A35D5D5D5E5E5F5F6009
:103BC00060606161626263636464646565666667C0
:103BD0006768686869696A6A6B6B6B6C6C6D6D6E3F
:103BE0006E6F6F6F707071717272737373747475BE
:103BF000757676767777787879797A7A7A7B7B7C3E
:103C00007C7D7D7E7E7E7F7F8080818181828283BC
:103C10008384848585858686878788888989898A3B
:103C20008A8B8B8C8C8C8D8D8E8E8F8F90909091BB
:103C3000919292939394949495959696979797983A
:103C40009899999A9A9B9B9B9C9C9D9D9E9E9F9FB9
:103C50009FA0A0A1A1A2A2A25D5D5E5E5F5F606069
:103C60006061616262636363646465656666676719
:103C700067686869696A6A6A6B6B6C6C6D6D6D6E9A
:103C80006E6F6F707070717172727373747474751B
:103C9000757676777777787879797A7A7B7B7B7C9B
:103CA0007C7D7D7E7E7E7F7F80808181818282831C
:103CB0008384848585858686878788888889898A9C
:103CC0008A8B8B8B8C8C8D8D8E8E8F8F8F9090911D
:103CD000919292929393949495959596969797989E
:103CE000989999999A9A9B9B9C9C9C9D9D9E9E9F1E
:103CF0009F9FA0A0A1A1A2A25D5E5E5F5F5F6060CA
:103D00006161626262636364646565656666676774
:103D100068686969696A6A6B6B6C6C6C6D6D6E6EF4
:103D20006F6F6F7070717172727273737474757576
:103D3000757676777778787879797A7A7B7B7B7CF9
:103D40007C7D7D7E7E7E7F7F80808181818282837B
:103D50008384848485858686878787888889898AFD
:103D60008A8A8B8B8C8C8D8D8D8E8E8F8F90909080
:103D70009191929293939394949595969696979702
:103D8000989899999A9A9A9B9B9C9C9D9D9D9E9E82
:103D90009F9FA0A0A0A1A1A25E5E5F5F5F60606127
:103DA00061626262636364646565656666676767CE
:103DB000686869696A6A6A6B6B6C6C6D6D6D6E6E52
:103DC0006F6F7070707171727273737374747575D4
:103DD000767676777778787879797A7A7B7B7B7C58
:103DE0007C7D7D7E7E7E7F7F8080818181828283DB
:103DF000838484848585868687878788888989895E
:103E00008A8A8B8B8C8C8C8D8D8E8E8F8F8F9090E1
:103E10009191929292939394949595959696979763
:103E200098989899999A9A9A9B9B9C9C9D9D9D9EE7
:103E30009E9F9FA0A0A0A1A15E5F5F5F6060616187
:103E40006162626363646464656566666767676828
:103E5000686969696A6A6B6B6C6C6C6D6D6E6E6EAD
:103E60006F6F707071717172727373747474757531
:103E7000767676777778787979797A7A7B7B7C7CB5
:103E80007C7D7D7E7E7E7F7F80808181818282833A
:103E900083838484858586868687878888898989BF
:103EA0008A8A8B8B8B8C8C8D8D8E8E8E8F8F909043
:103EB00091919192929393939494959596969697C7
:103EC0009798989999999A9A9B9B9B9C9C9D9D9E4B
:103ED0009E9E9F9FA0A0A0A15E5F5F6060616161E8
:103EE0006262636363646465656666666767686883
:103EF0006869696A6A6B6B6B6C6C6D6D6D6E6E6F09
:103F00006F7070707171727272737374747475758E
:103F1000767677777778787979797A7A7B7B7C7C13
:103F20007C7D7D7E7E7E7F7F808081818182828399
:103F3000838384848585868686878788888889891F
:103F40008A8A8B8B8B8C8C8D8D8D8E8E8F8F8F90A4
:103F5000909191929292939394949495959696972A
:103F6000979798989999999A9A9B9B9C9C9C9D9DB0
:103F70009E9E9E9F9FA0A0A15F5F60606061616246
:103F800062636363646465656566666767676868DE
:103F900069696A6A6A6B6B6C6C6C6D6D6E6E6E6F64
:103FA0006F707071717172727373737474757575EB
:103FB0007676777777787879797A7A7A7B7B7C7C72
:103FC0007C7D7D7E7E7E7F7F8080818181828283F9
:103FD0008383848485858586868787888888898980
:103FE0008A8A8A8B8B8C8C8C8D8D8E8E8F8F8F9006
:103FF000909191919292939393949495959596968E
:10400000979798989899999A9A9A9B9B9C9C9C9D13
:104010009D9E9E9F9F9FA0A05F60606061616262A5
:104020006263636464646565666667676768686938
:1040300069696A6A6B6B6B6C6C6D6D6D6E6E6F6FC0
:104040006F70707171717272737374747475757648
:104050007676777778787879797A7A7A7B7B7C7CD0
:104060007C7D7D7E7E7E7F7F808081818182828358
:1040700083838484858585868687878788888989E0
:10408000898A8A8B8B8B8C8C8D8D8E8E8E8F8F9068
:1040900090909191929292939394949495959696F0
:1040A00096979798989999999A9A9B9B9B9C9C9D77
:1040B0009D9D9E9E9F9F9FA0606060616162626205
:1040C0006363646464656566666667676868686993
:1040D000696A6A6A6B6B6C6C6C6D6D6E6E6E6F6F1D
:1040E00070707071717272727373747474757576A6
:1040F0007676777778787879797A7A7A7B7B7C7C30
:104100007C7D7D7E7E7E7F7F8080818181828283B7
:10411000838384848585858686878787888889893F
:10412000898A8A8B8B8B8C8C8D8D8D8E8E8F8F8FC9
:104130009090919191929293939394949595959652
:104140009697979798989999999A9A9B9B9B9C9CDC
:104150009D9D9D9E9E9F9F9F606061616162626365
:1041600063636464656565666667676768686969EF
:10417000696A6A6B6B6B6C6C6D6D6D6E6E6F6F6F79
:104180007070717171727273737374747575757602
:104190007677777778787979797A7A7B7B7B7C7C8C
:1041A0007D7D7D7E7E7F7F7F808080818182828217
:1041B00083838484848585868686878788888889A2
:1041C000898A8A8A8B8B8C8C8C8D8D8E8E8E8F8F2C
:1041D00090909091919292929393949494959596B5
:1041E0009696979798989899999A9A9A9B9B9C9C3F
:1041F0009C9D9D9E9E9E9F9F6061616162626363C4
:104200006364646565656666676767686868696949
:104210006A6A6A6B6B6C6C6C6D6D6E6E6E6F6F70D4
:104220007070717172727273737374747575757660
:104230007677777778787979797A7A7B7B7B7C7CEB
:104240007D7D7D7E7E7F7F7F808080818182828276
:104250008383848484858586868687878888888901
:10426000898A8A8A8B8B8C8C8C8D8D8D8E8E8F8F8C
:104270008F90909191919292939393949495959518
:10428000969697979798989999999A9A9A9B9B9CA2
:104290009C9C9D9D9E9E9E9F616161626262636324
:1042A00064646465656666666767686868696969A5
:1042B0006A6A6B6B6B6C6C6D6D6D6E6E6F6F6F7031
:1042C00070707171727272737374747475757676BE
:1042D0007677777878787979797A7A7B7B7B7C7C4A
:1042E0007D7D7D7E7E7F7F7F8080808181828282D6
:1042F0008383848484858586868687878788888962
:1043000089898A8A8B8B8B8C8C8D8D8D8E8E8F8FED
:104310008F9090909191929292939394949495957A
:1043200096969697979798989999999A9A9B9B9B06
:104330009C9C9D9D9D9E9E9E616162626263636482
:104340006464656565666667676768686969696A00
:104350006A6A6B6B6C6C6C6D6D6E6E6E6F6F6F708E
:10436000707171717272737373747475757576761A
:1043700076777778787879797A7A7A7B7B7B7C7CA8
:104380007D7D7D7E7E7F7F7F808080818182828235
:1043900083838484848585858686878787888889C2
:1043A00089898A8A8A8B8B8C8C8C8D8D8E8E8E8F50
:1043B0008F909090919191929293939394949595DC
:1043C00095969696979798989899999A9A9A9B9B6A
:1043D0009B9C9C9D9D9D9E9E6162626263636364E3
:1043E00064656565666667676768686869696A6A5B
:1043F0006A6B6B6B6C6C6D6D6D6E6E6F6F6F7070EA
:104400007071717272727373737474757575767678
:1044100077777778787879797A7A7A7B7B7B7C7C06
:104420007D7D7D7E7E7F7F7F808080818182828294
:104430008383848484858585868687878788888822
:1044400089898A8A8A8B8B8C8C8C8D8D8D8E8E8FB0
:104450008F8F90909091919292929393949494953F
:104460009595969697979798989999999A9A9A9BCD
:104470009B9C9C9C9D9D9D9E616262636363646442
:1044800064656566666667676868686969696A6AB7
:104490006B6B6B6C6C6C6D6D6E6E6E6F6F6F707046
:1044A00071717172727273737474747575757676D6
:1044B00077777778787979797A7A7A7B7B7C7C7C64
:1044C0007D7D7D7E7E7F7F7F8080808181828282F4
:1044D0008383838484858585868686878788888884
:1044E00089898A8A8A8B8B8B8C8C8D8D8D8E8E8E12
:1044F0008F8F9090909191919292939393949494A2
:10450000959596969697979798989999999A9A9B30
:104510009B9B9C9C9C9D9D9E6262636363646464A0
:10452000656566666667676768686869696A6A6A12
:104530006B6B6B6C6C6D6D6D6E6E6E6F6F707070A3
:104540007171717272737373747474757576767633
:1045500077777778787979797A7A7A7B7B7C7C7CC3
:104560007D7D7D7E7E7F7F7F808080818182828253
:1045700083838384848585858686868787888888E3
:104580008989898A8A8B8B8B8C8C8C8D8D8E8E8E73
:104590008F8F8F9090919191929292939394949403
:1045A00095959596969797979898989999999A9A94
:1045B0009B9B9B9C9C9C9D9D626263636464646501
:1045C000656566666767676868686969696A6A6B6E
:1045D0006B6B6C6C6C6D6D6E6E6E6F6F6F707071FF
:1045E0007171727272737373747475757576767691
:1045F00077777878787979797A7A7B7B7B7C7C7C21
:104600007D7D7D7E7E7F7F7F8080808181828282B2
:104610008383838484858585868686878787888843
:104620008989898A8A8A8B8B8C8C8C8D8D8D8E8ED4
:104630008F8F8F9090909191919292939393949465
:1046400094959596969697979798989999999A9AF6
:104650009A9B9B9B9C9C9D9D626363636464656560
:104660006566666667676768686969696A6A6A6BCA
:104670006B6C6C6C6D6D6D6E6E6E6F6F707070715B
:1046800071717272727373747474757575767677EE
:1046900077777878787979797A7A7B7B7B7C7C7C80
:1046A0007D7D7D7E7E7F7F7F808080818182828212
:1046B00083838384848485858686868787878888A4
:1046C0008889898A8A8A8B8B8B8C8C8D8D8D8E8E36
:1046D0008E8F8F8F909091919192929293939394C9
:1046E0009495959596969697979898989999999A5A
:1046F0009A9A9B9B9C9C9C9D6363636464646565C0
:1047000066666667676768686869696A6A6A6B6B24
:104710006B6C6C6C6D6D6E6E6E6F6F6F70707071B8
:10472000717272727373737474747575767676774A
:10473000777778787879797A7A7A7B7B7B7C7C7CDE
:104740007D7D7E7E7E7F7F7F808080818181828271
:104750008383838484848585858686878787888804
:10476000888989898A8A8B8B8B8C8C8C8D8D8D8E98
:104770008E8F8F8F9090909191919292939393942A
:1047800094949595959696979797989898999999BE
:104790009A9A9B9B9B9C9C9C63636464646565651F
:1047A00066666767676868686969696A6A6A6B6B81
:1047B0006C6C6C6D6D6D6E6E6E6F6F6F7070717115
:1047C00071727272737373747475757576767677A9
:1047D000777778787879797A7A7A7B7B7B7C7C7C3E
:1047E0007D7D7E7E7E7F7F7F8080808181818282D1
:1047F0008383838484848585858686878787888864
:10480000888989898A8A8A8B8B8C8C8C8D8D8D8EF8
:104810008E8E8F8F9090909191919292929393938C
:10482000949495959596969697979798989999991F
:104830009A9A9A9B9B9B9C9C63646464656565667D
:10484000666667676768686969696A6A6A6B6B6BDD
:104850006C6C6C6D6D6E6E6E6F6F6F707070717171
:104860007172727273737474747575757676767707
:10487000777778787979797A7A7A7B7B7B7C7C7C9C
:104880007D7D7E7E7E7F7F7F808080818181828230
:1048900083838384848485858586868687878888C4
:1048A000888989898A8A8A8B8B8B8C8C8D8D8D8E59
:1048B0008E8E8F8F8F9090909191919292939393EF
:1048C0009494949595959696969797989898999983
:1048D000999A9A9A9B9B9B9C6364646565656666DE
:1048E000666767676868686969696A6A6B6B6B6C39
:1048F0006C6C6D6D6D6E6E6E6F6F6F7070717171CF
:104900007272727373737474747575757676777763
:10491000777878787979797A7A7A7B7B7B7C7C7DF9
:104920007D7D7E7E7E7F7F7F80808081818182828F
:104930008383838484848585858686868787878824
:10494000888989898A8A8A8B8B8B8C8C8C8D8D8DBA
:104950008E8E8F8F8F90909091919192929293934F
:1049600093949495959596969697979798989899E5
:1049700099999A9A9B9B9B9C64646465656566663D
:104980006767676868686969696A6A6A6B6B6B6C94
:104990006C6C6D6D6D6E6E6F6F6F7070707171712C
:1049A00072727273737374747475757676767777C2
:1049B000777878787979797A7A7A7B7B7B7C7C7D59
:1049C0007D7D7E7E7E7F7F7F8080808181818282EF
:1049D0008283838484848585858686868787878885
:1049E00088888989898A8A8B8B8B8C8C8C8D8D8D1C
:1049F0008E8E8E8F8F8F90909091919292929393B2
:104A00009394949495959596969697979798989948
:104A100099999A9A9A9B9B9B64646565656666669C
:104A200067676768686869696A6A6A6B6B6B6C6CF0
:104A30006C6D6D6D6E6E6E6F6F6F70707071717189
:104A4000727273737374747475757576767677771E
:104A5000777878787979797A7A7A7B7B7C7C7C7DB7
:104A60007D7D7E7E7E7F7F7F80808081818182824E
:104A700082838383848485858586868687878788E5
:104A800088888989898A8A8A8B8B8B8C8C8C8D8D7E
:104A90008E8E8E8F8F8F9090909191919292929313
:104AA00093939494949595959696979797989898AC
:104AB0009999999A9A9A9B9B6465656566666667FB
:104AC00067676868686969696A6A6A6B6B6B6C6C4E
:104AD0006C6D6D6D6E6E6F6F6F70707071717172E5
:104AE000727273737374747475757576767677777E
:104AF000777878787979797A7A7B7B7B7C7C7C7D16
:104B00007D7D7E7E7E7F7F7F8080808181818282AD
:104B10008283838384848485858686868787878845
:104B200088888989898A8A8A8B8B8B8C8C8C8D8DDD
:104B30008D8E8E8E8F8F8F90909091919292929376
:104B4000939394949495959596969697979798980D
:104B5000989999999A9A9A9B64656565666667675C
:104B6000676868686969696A6A6A6B6B6B6C6C6CA8
:104B70006D6D6D6E6E6E6F6F6F7070707171717242
:104B800072727373737474747575757676767777DD
:104B90007878787979797A7A7A7B7B7B7C7C7C7D72
:104BA0007D7D7E7E7E7F7F7F80808081818182820D
:104BB00082838383848484858585868686878787A8
:104BC00088888989898A8A8A8B8B8B8C8C8C8D8D3D
:104BD0008D8E8E8E8F8F8F909090919191929292D8
:104BE0009393939494949595959696969797979872
:104BF000989999999A9A9A9B6565656666666767BA
:104C0000676868686969696A6A6A6B6B6B6C6C6C07
:104C10006D6D6D6E6E6E6F6F6F707071717172729F
:104C20007273737374747475757576767677777737
:104C30007878787979797A7A7A7B7B7B7C7C7C7DD1
:104C40007D7D7E7E7E7F7F7F80808081818182826C
:104C50008283838384848485858586868687878707
:104C60008888888989898A8A8A8B8B8B8C8C8C8DA1
:104C70008D8D8E8E8F8F8F90909091919192929238
:104C800093939394949495959596969697979798D1
:104C900098989999999A9A9A65656666666767671A
:104CA0006868686969696A6A6A6B6B6B6C6C6C6D61
:104CB0006D6D6E6E6E6F6F6F7070707171717272FC
:104CC0007273737374747475757576767677777797
:104CD0007878787979797A7A7A7B7B7B7C7C7C7D31
:104CE0007D7D7E7E7E7F7F7F8080808181818282CC
:104CF0008283838384848485858586868687878767
:104D00008888888989898A8A8A8B8B8B8C8C8C8D00
:104D10008D8D8E8E8E8F8F8F90909091919192929B
:104D20009293939394949495959596969697979736
:104D30009898989999999A9A656666666767676779
:104D40006868686969696A6A6A6B6B6B6C6C6C6DC0
:104D50006D6D6E6E6E6F6F6F70707071717172725B
:104D600072737373747474757575767676777777F6
:104D70007878787979797A7A7A7B7B7B7C7C7C7D90
:104D80007D7D7E7E7E7F7F7F80808081818182822B
:104D900082838383848484858585868686878787C6
:104DA0008888888989898A8A8A8B8B8B8C8C8C8D60
:104DB0008D8D8E8E8E8F8F8F9090909191919292FB
:104DC0009293939394949495959596969697979796
:104DD000989898999999999A6566666667676768D9
:104DE00068686969696A6A6A6B6B6B6C6C6C6D6D1B
:104DF0006D6E6E6E6F6F6F707070717171727272B6
:104E00007373737474747575757576767677777752
:104E10007878787979797A7A7A7B7B7B7C7C7C7DEF
:104E20007D7D7E7E7E7F7F7F80808081818182828A
:104E30008283838384848485858586868687878725
:104E40008888888989898A8A8A8A8B8B8B8C8C8CC2
:104E50008D8D8D8E8E8E8F8F8F909090919191925F
:104E600092929393939494949595959696969797FA
:104E7000979898989999999A666666676767686837
:104E8000686969696A6A6A6B6B6B6B6C6C6C6D6D77
:104E90006D6E6E6E6F6F6F70707071717172727215
:104EA00073737374747475757576767677777778AF
:104EB0007878797979797A7A7A7B7B7B7C7C7C7D4E
:104EC0007D7D7E7E7E7F7F7F8080808181818282EA
:104ED0008283838384848485858586868686878786
:104EE000878888888989898A8A8A8B8B8B8C8C8C25
:104EF0008D8D8D8E8E8E8F8F8F90909091919192BF
:104F0000929293939394949494959595969696975C
:104F100097979898989999990000000000000000D0
:104F20000000000000000000000000000000000081
:104F30000000000000000000000000000000000071
:104F40000000000000000000000000000000000061
:104F50000000000000000000000000000000000051
:105190000000000000000000FFFFFFFFFFFFFFFF17
:1051A000FFFFFFFFFFFFFFFFFFFFFFFFFFFFFFFF0F
:1051B000FFFFFFFFFFFFFFFFFFFFFFFFFFFFFFFFFF
:1051C000FFFFFFFFFFFFFFFFFFFFFFFFFFFFFFFFEF
:1051D000FFFFFFFFFFFFFFFFFFFFFFFFFFFFFFFFDF
:105AF000FFFFFFFFFFFFFFFFEFEFEFEFEFEFEFEF36
:105B0000EFEFEFEFEFEFEFEFEFEFEFEFEFEFEFEFA5
:105B1000EFEFEFEFEFEFEFEFEFEFEFEFEFEFEFEF95
:105B2000EFEFEFEFEFEFEFEFEFEFEFEFEFEFEFEF85
:105B3000EFEFEFEFEFEFEFEFEFEFEFEFEFEFEFEF75
:105B4000EFEFEFEFEFEFEFEFEFEFEFEFEFEFEFEF65
:105B5000EFEFEFEFEFEFEFEFEFEFEFEFEFEFEFEF55
:105B6000EFEFEFEFEFEFEFEFEFEFEFEFEFEFEFEF45
:105B7000EFEFEFEFEFEFEFEFEFEFEFEFEFEFEFEF35
:105B8000EFEFEFEFEFEFEFEFEFEFEFEFEFEFEFEF25
:105B9000EFEFEFEFEFEFEFEFDEDEDEDEDEDEDEDE9D
:105BA000DEDEDEDEDEDEDEDEDEDEDEDEDEDEDEDE15
:105BB000DEDEDEDEDEDEDEDEDEDEDEDEDEDEDEDE05
:105BC000DEDEDEDEDEDEDEDEDEDEDEDEDEDEDEDEF5
:105BD000DEDEDEDEDEDEDEDEDEDEDEDEDEDEDEDEE5
:105BE000DEDEDEDEDEDEDEDEDEDEDEDEDEDEDEDED5
:105BF000DEDEDEDEDEDEDEDEDEDEDEDEDEDEDEDEC5
:105C0000DEDEDEDEDEDEDEDEDEDEDEDEDEDEDEDEB4
:105C1000DEDEDEDEDEDEDEDEDEDEDEDEDEDEDEDEA4
:105C2000DEDEDEDEDEDEDEDEDEDEDEDEDEDEDEDE94
:105C3000DEDEDEDEDEDEDEDECFCFCFCFCFCFCFCFFC
:105C4000CFCFCFCFCFCFCFCFCFCFCFCFCFCFCFCF64
:105C5000CFCFCFCFCFCFCFCFCFCFCFCFCFCFCFCF54
:105C6000CFCFCFCFCFCFCFCFCFCFCFCFCFCFCFCF44
:105C7000CFCFCFCFCFCFCFCFCFCFCFCFCFCFCFCF34
:105C8000CFCFCFCFCFCFCFCFCFCFCFCFCFCFCFCF24
:105C9000CFCFCFCFCFCFCFCFCFCFCFCFCFCFCFCF14
:105CA000CFCFCFCFCFCFCFCFCFCFCFCFCFCFCFCF04
:105CB000CFCFCFCFCFCFCFCFCFCFCFCFCFCFCFCFF4
:105CC000CFCFCFCFCFCFCFCFCFCFCFCFCFCFCFCFE4
:105CD000CFCFCFCFCFCFCFCFC2C2C2C2C2C2C2C23C
:105CE000C2C2C2C2C2C2C2C2C2C2C2C2C2C2C2C294
:105CF000C2C2C2C2C2C2C2C2C2C2C2C2C2C2C2C284
:105D0000C2C2C2C2C2C2C2C2C2C2C2C2C2C2C2C273
:105D1000C2C2C2C2C2C2C2C2C2C2C2C2C2C2C2C263
:105D2000C2C2C2C2C2C2C2C2C2C2C2C2C2C2C2C253
:105D3000C2C2C2C2C2C2C2C2C2C2C2C2C2C2C2C243
:105D4000C2C2C2C2C2C2C2C2C2C2C2C2C2C2C2C233
:105D5000C2C2C2C2C2C2C2C2C2C2C2C2C2C2C2C223
:105D6000C2C2C2C2C2C2C2C2C2C2C2C2C2C2C2C213
:105D7000C2C2C2C2C2C2C2C2B6B6B6B6B6B6B6B663
:105D8000B6B6B6B6B6B6B6B6B6B6B6B6B6B6B6B6B3
:105D9000B6B6B6B6B6B6B6B6B6B6B6B6B6B6B6B6A3
:105DA000B6B6B6B6B6B6B6B6B6B6B6B6B6B6B6B693
:105DB000B6B6B6B6B6B6B6B6B6B6B6B6B6B6B6B683
:105DC000B6B6B6B6B6B6B6B6B6B6B6B6B6B6B6B673
:105DD000B6B6B6B6B6B6B6B6B6B6B6B6B6B6B6B663
:105DE000B6B6B6B6B6B6B6B6B6B6B6B6B6B6B6B653
:105DF000B6B6B6B6B6B6B6B6B6B6B6B6B6B6B6B643
:105E0000B6B6B6B6B6B6B6B6B6B6B6B6B6B6B6B632
:105E1000B6B6B6B6B6B6B6B6ABABABABABABABAB7A
:105E2000ABABABABABABABABABABABABABABABABC2
:105E3000ABABABABABABABABABABABABABABABABB2
:105E4000ABABABABABABABABABABABABABABABABA2
:105E5000ABABABABABABABABABABABABABABABAB92
:105E6000ABABABABABABABABABABABABABABABAB82
:105E7000ABABABABABABABABABABABABABABABAB72
:105E8000ABABABABABABABABABABABABABABABAB62
:105E9000ABABABABABABABABABABABABABABABAB52
:105EA000ABABABABABABABABABABABABABABABAB42
:105EB000ABABABABABABABABA1A1A1A1A1A1A1A182
:105EC000A1A1A1A1A1A1A1A1A1A1A1A1A1A1A1A1C2
:105ED000A1A1A1A1A1A1A1A1A1A1A1A1A1A1A1A1B2
:105EE000A1A1A1A1A1A1A1A1A1A1A1A1A1A1A1A1A2
:105EF000A1A1A1A1A1A1A1A1A1A1A1A1A1A1A1A192
:105F0000A1A1A1A1A1A1A1A1A1A1A1A1A1A1A1A181
:105F1000A1A1A1A1A1A1A1A1A1A1A1A1A1A1A1A171
:105F2000A1A1A1A1A1A1A1A1A1A1A1A1A1A1A1A161
:105F3000A1A1A1A1A1A1A1A1A1A1A1A1A1A1A1A151
:105F4000A1A1A1A1A1A1A1A1A1A1A1A1A1A1A1A141
:105F5000A1A1A1A1A1A1A1A1989898989898989879
:105F600098989898989898989898989898989898B1
:105F700098989898989898989898989898989898A1
:105F80009898989898989898989898989898989891
:105F90009898989898989898989898989898989881
:105FA0009898989898989898989898989898989871
:105FB0009898989898989898989898989898989861
:105FC0009898989898989898989898989898989851
:105FD0009898989898989898989898989898989841
:105FE0009898989898989898989898989898989831
:105FF0009898989898989898909090909090909061
:106000009090909090909090909090909090909090
:106010009090909090909090909090909090909080
:106020009090909090909090909090909090909070
:106030009090909090909090909090909090909060
:106040009090909090909090909090909090909050
:106050009090909090909090909090909090909040
:106060009090909090909090909090909090909030
:106070009090909090909090909090909090909020
:106080009090909090909090909090909090909010
:106090009090909090909090888888888888888840
:1060A0008888888888888888888888888888888870
:1060B0008888888888888888888888888888888860
:1060C0008888888888888888888888888888888850
:1060D0008888888888888888888888888888888840
:1060E0008888888888888888888888888888888830
:1060F0008888888888888888888888888888888820
:10610000888888888888888888888888888888880F
:1061100088888888888888888888888888888888FF
:1061200088888888888888888888888888888888EF
:106130008888888888888888818181818181818117
:10614000818181818181818181818181818181813F
:10615000818181818181818181818181818181812F
:10616000818181818181818181818181818181811F
:10617000818181818181818181818181818181810F
:1061800081818181818181818181818181818181FF
:1061900081818181818181818181818181818181EF
:1061A00081818181818181818181818181818181DF
:1061B00081818181818181818181818181818181CF
:1061C00081818181818181818181818181818181BF
:1061D00081818181818181817B7B7B7B7B7B7B7BDF
:1061E0007B7B7B7B7B7B7B7B7B7B7B7B7B7B7B7BFF
:1061F0007B7B7B7B7B7B7B7B7B7B7B7B7B7B7B7BEF
:106200007B7B7B7B7B7B7B7B7B7B7B7B7B7B7B7BDE
:106210007B7B7B7B7B7B7B7B7B7B7B7B7B7B7B7BCE
:106220007B7B7B7B7B7B7B7B7B7B7B7B7B7B7B7BBE
:106230007B7B7B7B7B7B7B7B7B7B7B7B7B7B7B7BAE
:106240007B7B7B7B7B7B7B7B7B7B7B7B7B7B7B7B9E
:106250007B7B7B7B7B7B7B7B7B7B7B7B7B7B7B7B8E
:106260007B7B7B7B7B7B7B7B7B7B7B7B7B7B7B7B7E
:106270007B7B7B7B7B7B7B7B75757575757575759E
:1062800075757575757575757575757575757575BE
:1062900075757575757575757575757575757575AE
:1062A000757575757575757575757575757575759E
:1062B000757575757575757575757575757575758E
:1062C000757575757575757575757575757575757E
:1062D000757575757575757575757575757575756E
:1062E000757575757575757575757575757575755E
:1062F000757575757575757575757575757575754E
:10630000757575757575757575757575757575753D
:106310007575757575757575707070707070707055
:10632000707070707070707070707070707070706D
:10633000707070707070707070707070707070705D
:10634000707070707070707070707070707070704D
:10635000707070707070707070707070707070703D
:10636000707070707070707070707070707070702D
:10637000707070707070707070707070707070701D
:10638000707070707070707070707070707070700D
:1063900070707070707070707070707070707070FD
:1063A00070707070707070707070707070707070ED
:1063B00070707070707070706B6B6B6B6B6B6B6B05
:1063C0006B6B6B6B6B6B6B6B6B6B6B6B6B6B6B6B1D
:1063D0006B6B6B6B6B6B6B6B6B6B6B6B6B6B6B6B0D
:1063E0006B6B6B6B6B6B6B6B6B6B6B6B6B6B6B6BFD
:1063F0006B6B6B6B6B6B6B6B6B6B6B6B6B6B6B6BED
:106400006B6B6B6B6B6B6B6B6B6B6B6B6B6B6B6BDC
:106410006B6B6B6B6B6B6B6B6B6B6B6B6B6B6B6BCC
:106420006B6B6B6B6B6B6B6B6B6B6B6B6B6B6B6BBC
:106430006B6B6B6B6B6B6B6B6B6B6B6B6B6B6B6BAC
:106440006B6B6B6B6B6B6B6B6B6B6B6B6B6B6B6B9C
:106450006B6B6B6B6B6B6B6B6666666666666666B4
:1064600066666666666666666666666666666666CC
:1064700066666666666666666666666666666666BC
:1064800066666666666666666666666666666666AC
:10649000666666666666666666666666666666669C
:1064A000666666666666666666666666666666668C
:1064B000666666666666666666666666666666667C
:1064C000666666666666666666666666666666666C
:1064D000666666666666666666666666666666665C
:1064E000666666666666666666666666666666664C
:1064F0006666666666666666616161616161616164
:10650000616161616161616161616161616161617B
:10651000616161616161616161616161616161616B
:10652000616161616161616161616161616161615B
:10653000616161616161616161616161616161614B
:10654000616161616161616161616161616161613B
:10655000616161616161616161616161616161612B
:10656000616161616161616161616161616161611B
:10657000616161616161616161616161616161610B
:1065800061616161616161616161616161616161FB
:1065900061616161616161615D5D5D5D5D5D5D5D0B
:1065A0005D5D5D5D5D5D5D5D5D5D5D5D5D5D5D5D1B
:1065B0005D5D5D5D5D5D5D5D5D5D5D5D5D5D5D5D0B
:1065C0005D5D5D5D5D5D5D5D5D5D5D5D5D5D5D5DFB
:1065D0005D5D5D5D5D5D5D5D5D5D5D5D5D5D5D5DEB
:1065E0005D5D5D5D5D5D5D5D5D5D5D5D5D5D5D5DDB
:1065F0005D5D5D5D5D5D5D5D5D5D5D5D5D5D5D5DCB
:106600005D5D5D5D5D5D5D5D5D5D5D5D5D5D5D5DBA
:106610005D5D5D5D5D5D5D5D5D5D5D5D5D5D5D5DAA
:106620005D5D5D5D5D5D5D5D5D5D5D5D5D5D5D5D9A
:106630005D5D5D5D5D5D5D5D5959595959595959AA
:1066400059595959595959595959595959595959BA
:1066500059595959595959595959595959595959AA
:10666000595959595959595959595959595959599A
:10667000595959595959595959595959595959598A
:10668000595959595959595959595959595959597A
:10669000595959595959595959595959595959596A
:1066A000595959595959595959595959595959595A
:1066B000595959595959595959595959595959594A
:1066C000595959595959595959595959595959593A
:1066D000595959595959595955555555555555554A
:1066E000555555555555555555555555555555555A
:1066F000555555555555555555555555555555554A
:106700005555555555555555555555555555555539
:106710005555555555555555555555555555555529
:106720005555555555555555555555555555555519
:106730005555555555555555555555555555555509
:1067400055555555555555555555555555555555F9
:1067500055555555555555555555555555555555E9
:1067600055555555555555555555555555555555D9
:1067700055555555555555555252525252525252E1
:1067800052525252525252525252525252525252E9
:1067900052525252525252525252525252525252D9
:1067A00052525252525252525252525252525252C9
:1067B00052525252525252525252525252525252B9
:1067C00052525252525252525252525252525252A9
:1067D0005252525252525252525252525252525299
:1067E0005252525252525252525252525252525289
:1067F0005252525252525252525252525252525279
:106800005252525252525252525252525252525268
:1068100052525252525252524F4F4F4F4F4F4F4F70
:106820004F4F4F4F4F4F4F4F4F4F4F4F4F4F4F4F78
:106830004F4F4F4F4F4F4F4F4F4F4F4F4F4F4F4F68
:106840004F4F4F4F4F4F4F4F4F4F4F4F4F4F4F4F58
:106850004F4F4F4F4F4F4F4F4F4F4F4F4F4F4F4F48
:106860004F4F4F4F4F4F4F4F4F4F4F4F4F4F4F4F38
:106870004F4F4F4F4F4F4F4F4F4F4F4F4F4F4F4F28
:106880004F4F4F4F4F4F4F4F4F4F4F4F4F4F4F4F18
:106890004F4F4F4F4F4F4F4F4F4F4F4F4F4F4F4F08
:1068A0004F4F4F4F4F4F4F4F4F4F4F4F4F4F4F4FF8
:1068B0004F4F4F4F4F4F4F4F4B4B4B4B4B4B4B4B08
:1068C0004B4B4B4B4B4B4B4B4B4B4B4B4B4B4B4B18
:1068D0004B4B4B4B4B4B4B4B4B4B4B4B4B4B4B4B08
:1068E0004B4B4B4B4B4B4B4B4B4B4B4B4B4B4B4BF8
:1068F0004B4B4B4B4B4B4B4B4B4B4B4B4B4B4B4BE8
:106900004B4B4B4B4B4B4B4B4B4B4B4B4B4B4B4BD7
:106910004B4B4B4B4B4B4B4B4B4B4B4B4B4B4B4BC7
:106920004B4B4B4B4B4B4B4B4B4B4B4B4B4B4B4BB7
:106930004B4B4B4B4B4B4B4B4B4B4B4B4B4B4B4BA7
:106940004B4B4B4B4B4B4B4B4B4B4B4B4B4B4B4B97
:106950004B4B4B4B4B4B4B4B494949494949494997
:106960004949494949494949494949494949494997
:106970004949494949494949494949494949494987
:106980004949494949494949494949494949494977
:106990004949494949494949494949494949494967
:1069A0004949494949494949494949494949494957
:1069B0004949494949494949494949494949494947
:1069C0004949494949494949494949494949494937
